:100000000C942A000C943F000C943F000C943F0089
:100010000C943F000C943F000C943F000C943F0064
:100020000C943F000C943F000C943F000C943F0054
:100030000C943F000C943F000C943F000C943F0044
:100040000C943F000C943F000C943F000C943F0034
:100050000C943F0011241FBECFE5D8E0DEBFCDBF1A
:1000600010E0A0E6B0E0E6EBF1E002C005900D92F2
:10007000A836B107D9F70E94CA000C94D9000C9495
:1000800000008FEF8ABB81B3806E81BB08958BBB6C
:1000900095989698979A8FEC97E00197F1F700C0A2
:1000A000000097988FE99FE00197F1F700C00000EA
:1000B00008950E9441008FE295E70197F1F700C093
:1000C000000088E30E9447008EE00E94470081E024
:1000D0000E94470082E00E94470008958BBB959ADA
:1000E0009698979A8FEC97E00197F1F700C000007F
:1000F00097988FE99FE00197F1F700C000000895FD
:10010000EF92FF920F931F93CF93DF938C017C01AB
:10011000C0E0D0E006C0F70181917F010E946E002F
:100120002196F80101900020E9F73197E01BF10BCF
:10013000CE17DF0780F3DF91CF911F910F91FF90D2
:10014000EF9008950F931F93CF93DF938C01D42FDB
:10015000662319F0613039F00AC080E80E94470038
:10016000D11109C00FC080EC0E944700F9CF80E890
:100170000E944700F5CFC0E084E10E944700CF5FB6
:10018000DC13FACFC8010E948000DF91CF911F914C
:100190000F9108950E94590080E690E00E9480002F
:1001A00049E050E061E070E086E690E00E94A20045
:0601B000FFCFF894FFCF21
:0801B600616468616D007400D2
:00000001FF
